:020000040800F2
:100000000812002001010008F1280008F328000868
:10001000F7280008FB280008FF280008000000005F
:10002000000000000000000000000000032900089C
:100030000529000800000000072900080929000818
:100040001B0100081B0100081B0100088329000890
:100050001B0100081B0100081B0100081B01000810
:100060001B0100081B0100081B0100081B01000800
:100070001B0100081B0100081B0100081B010008F0
:100080001B0100081B0100081B0100081B010008E0
:100090001B0100081B0100081B0100081B010008D0
:1000A0001B0100081B0100081B0100081B010008C0
:1000B000952B00085B3100081B0100081B0100089C
:1000C0001B0100081B0100081B0100081B010008A0
:1000D0001B01000813290008D13100084B29000832
:1000E0001B0100081B0100081B010008DFF80CD0F1
:1000F00006F0BAF800480047EF2700080812002071
:100100000648804706480047FEE7FEE7FEE7FEE7B1
:10011000FEE7FEE7FEE7FEE7FEE7FEE70302000874
:10012000ED0000080CB50020019000906C480068BC
:1001300040F480306A49086000BF6948006800F4F4
:10014000003000900198401C0190009818B9019867
:10015000B0F5A06FF1D16248006800F4003010B132
:100160000120009001E0002000900098012843D178
:100170005C48006840F010005A4908600846006872
:1001800020F0030008600846006840F002000860A4
:1001900053484068524948600846406848600846ED
:1001A000406840F4806048600846406820F47C1055
:1001B00048600846406840F4E81048600846006817
:1001C00040F08070086000BF4548006800F0007093
:1001D0000028F9D04248406820F0030040494860B8
:1001E0000846406840F00200486000BF3C48406854
:1001F00000F00C000828F9D10CBD10B5FFF792FFF4
:1002000010BD10B53648006840F001003449086060
:10021000084640683449084031494860084600684B
:10022000324908402E4908600846006820F48020C2
:1002300008600846406820F4FE0048604FF41F0044
:100240008860FFF7DAFF4FF000602949086010BDB1
:1002500010B5002100200022214B5B6803F00C0147
:1002600021B1042906D0082928D107E0214B224CCE
:10027000236027E01F4B204C236023E0184B5B6872
:1002800003F47010164B5B6803F48032022303EB17
:10029000904022B9194B4343174C23600DE0104B9B
:1002A0005B6803F4003323B1144B4343124C2360C7
:1002B00003E0104B4343104C236003E00D4B0E4C06
:1002C000236000BF00BF064B5B68C3F303130C4CF5
:1002D000E15C094B1B68CB40074C236010BD00005C
:1002E00000100240002002400000FFF8FFFFF6FE71
:1002F00008ED00E000127A000000002000093D0037
:100300000400002031490143314A1160704770B543
:10031000002100230F22C47804B32D4C246804F478
:10032000E064C4F5E064210AC1F10403CA404478E2
:1003300004FA03F18478144021430901254C06781E
:10034000A155047804F01F050124AC4005786D1117
:10035000AD0005F1E025C5F8004109E0047804F09E
:100360001F050124AC401C4D0678761145F8264047
:1003700070BD1A4A0A400243154B1B1F1A60704792
:1003800039B1134A121D12680243114B1B1D1A602A
:1003900006E00F4A121D126882430D4B1B1D1A60A6
:1003A0007047042808D14FF0E021096941F00401A9
:1003B0004FF0E022116107E04FF0E021096921F0E0
:1003C00004014FF0E0221161704700000000FA05BF
:1003D0000CED00E000E400E080E100E080FFFF1FA2
:1003E00010B50446FA48844208D10121401500F0B6
:1003F00055FD0021601500F051FD17E0F5488442DD
:1004000008D10121001500F049FD0021201500F060
:1004100045FD0BE0F048844208D10121C80300F0FB
:100420003DFD00214FF4004000F038FD10BD30B517
:100430000246002000235068E84C20400D790C68EB
:1004400044EA0524204350609068E54C2040D1E9FF
:1004500002542C434D7944EA450420439060D06A0D
:1004600020F470000C7C641EE4B2234340EA035085
:10047000D06230BD00210160017141718160C160B5
:1004800001210174704721B1826842F0010282604B
:1004900003E0826822F001028260704721B1826825
:1004A00042F48072826003E0826822F4807282608B
:1004B000704710B50023CBB21AB144681C434460A6
:1004C00002E044689C43446010BD816841F008012B
:1004D00081607047014600208A6802F008020AB174
:1004E000012000E000207047816841F00401816034
:1004F0007047014600208A6802F004020AB1012018
:1005000000E00020704721B1826842F4A0028260BE
:1005100003E0826822F4A002826070470146002056
:100520008A6802F480020AB1012000E000207047CE
:1005300010B50A4600210023416821F46041531E92
:1005400041EA4331416010BD21B1426842F400628A
:10055000426003E0426822F4006242607047F0B5F6
:1005600004460D4600200021092D11DDE068A5F1AB
:100570000A0606EB4607072606FA07F18843A5F1A7
:100580000A0606EB460603FA06F10843E0600CE0B3
:10059000206905EB4507072606FA07F1884305EBB6
:1005A000450603FA06F108432061072A0FDA606B5B
:1005B000561E06EB86071F2606FA07F18843561ECD
:1005C00006EB860605FA06F10843606322E00D2A71
:1005D0000FDA206BD61F06EB86071F2606FA07F1F7
:1005E0008843D61F06EB860605FA06F1084320630A
:1005F00010E0E06AA2F10D0606EB86071F2606FA58
:1006000007F18843A2F10D0606EB860605FA06F10E
:100610000843E062F0BD21B1826842F4801282603A
:1006200003E0826822F48012826070470146C86C41
:1006300080B2704766484C300068704721B142680C
:1006400042F48062426003E0426822F480624260C9
:10065000704721B1426842F48052426003E0426830
:1006600022F48052426070470A460021816821F4DA
:10067000E04111438160704721B1826842F4004239
:10068000826003E0826822F400428260704721B1F8
:10069000826842F40212826003E0826822F402124D
:1006A00082607047014600208A6802F400120AB195
:1006B000012000E000207047F0B5044615460020F8
:1006C00000220026092911DDE068A1F10A0707EBE5
:1006D000470C072707FA0CF29043A1F10A0707EB32
:1006E000470703FA07F21043E0600CE0206901EBD2
:1006F000410C072707FA0CF2904301EB410703FA7C
:1007000007F210432061A06BC0F30156EF1C06F105
:10071000010CA7EB0C0707EB870C1F2707FA0CF25D
:100720009043EF1C06F1010CA7EB0C0707EB8707C2
:1007300001FA07F21043A063F0BD10B50A4600218C
:100740000023816B21F44011531E41EA0351816360
:1007500010BD08B5002300930090009B0B4400934C
:10076000009B1A6008BD08B5024600200090009268
:1007700001F12800009B184400900098006880B2A6
:1007800008BD0A4600214168164B194011434160DB
:1007900070474162826270470A460021416821F039
:1007A0001F0111434160704740B109490831096890
:1007B00041F40001064A0832116007E0044908319B
:1007C000096821F40001024A0832116070470000F4
:1007D0000024014000280140003C0140FFFEF0FFE2
:1007E000FDF7F1FFFFFD3FFF0246002013680B40BD
:1007F0000BB1012000E000207047CA43026070473F
:1008000070B502460020002300240B125568CEB2BA
:1008100005EA060415681D4015B10CB1012000E081
:10082000002070BD00220A12D3430360704700000D
:1008300010B50446CC48844208D10121042000F0C0
:100840002DFB0021042000F029FB46E0C74884422C
:1008500008D10121082000F021FB0021082000F030
:100860001DFB3AE0C248844208D10121102000F06B
:1008700015FB0021102000F011FB2EE0BD48844242
:1008800008D10121202000F009FB0021202000F0E8
:1008900005FB22E0B848844208D10121402000F045
:1008A000FDFA0021402000F0F9FA16E0B348844236
:1008B00008D10121802000F0F1FA0021802000F011
:1008C000EDFA0AE0AE48844207D10121801500F01C
:1008D000E5FA0021A01500F0E1FA10BD10B50121E4
:1008E000084600F0DBFA0021012000F0D7FA10BD25
:1008F0002DE9F041024600250026002000230024B7
:10090000002791F803C00CF00F0591F803C00CF01C
:10091000100CBCF1000F03D091F802C04CEA0505A1
:1009200091F800C0BCF1000F31D0146800202BE01A
:100930004FF0010C0CFA00F3B1F800C00CEA03060A
:100940009E4220D183004FF00F0C0CFA03F7BC43FA
:1009500005FA03FC4CEA040491F803C0BCF1280F2B
:1009600006D14FF0010C0CFA00FCC2F814C00AE0EA
:1009700091F803C0BCF1480F05D14FF0010C0CFAFF
:1009800000FCC2F810C0401C0828D1D31460B1F894
:1009900000C0BCF1FF0F34DD546800202EE000F1F0
:1009A000080C4FF0010808FA0CF3B1F800C00CEA8B
:1009B00003069E4221D183004FF00F0C0CFA03F77F
:1009C000BC4305FA03FC4CEA040491F803C0BCF1F3
:1009D000280F05D100F1080C08FA0CF8C2F81480B1
:1009E00091F803C0BCF1480F07D100F1080C4FF09B
:1009F000010808FA0CF8C2F81080401C0828CED371
:100A00005460BDE8F0814FF6FF71018002218170D2
:100A10000421C17070470246002093680B400BB15F
:100A2000012000E0002070470146886880B27047CE
:100A300002460020D3680B400BB1012000E00020EB
:100A400070470146C86880B27047016170474161D4
:100A500070470AB1016100E041617047C1607047B1
:100A60004FF480320A4382618161826182698269C6
:100A7000704702460020434B18684FF680731840B9
:100A800040EA021008433F4B186070473E49C86176
:100A90007047F0B50A46002300240021002500F02D
:100AA0000046B6F1004F02D1364EF16901E0354EF5
:100AB0007168C0F3034583B200F44016B6F5401FD9
:100AC00008D121F070612F4E766826F070662D4FA8
:100AD0007E6012E000F48016B6F5801F06D1032672
:100AE00006FA05F4A14341F0706106E0460D3601B7
:100AF00003FA06F6B14341F0706122B1460D3601AA
:100B000003FA06F6314300F00046B6F1004F02D179
:100B10001C4EF16101E01B4E7160F0BD30B500224A
:100B20008B071C0F0F2303FA04F2164B08338C10AB
:100B300053F824309343134C08348D1044F8253077
:100B400023468C1053F824308C07240F00FA04F449
:100B500023430C4C08348D1044F8253030BD0A492D
:100B6000DC3108607047000000080140000C0140C3
:100B7000001001400014014000180140001C014019
:100B8000002001400000014000002042DF480068D2
:100B900040F00100DD49086008464068DC49084033
:100BA000DA49486008460068DA490840D7490860D1
:100BB0000846006820F4802008600846406820F459
:100BC000FE0048604FF41F0088607047CF490968F5
:100BD00021F48031CD4A11601146096821F4802149
:100BE0001160B0F5803F03D0B0F5802F0ED106E044
:100BF000C649096841F48031C44A116007E0C3491D
:100C0000096841F4A021C14A116000E000BF00BFA3
:100C1000704710B501460022002300204A11012A26
:100C200002D1BA4C236806E0022A02D1B74C236AEB
:100C300001E0B64C636A01F01F02012494401C409D
:100C40000CB1012000E0002010BD38B5002000905C
:100C50000024002500BF3120FFF7DBFF0546009888
:100C6000401C00900098B0F5A06F01D0002DF2D08C
:100C70003120FFF7CEFF08B1012400E00024204618
:100C800038BD01460020A14A106820F0F80040EA73
:100C9000C10010607047A0490860704702460020FC
:100CA0009A4B586820F47C1042EA01031843974B92
:100CB0005860704798490866704701460020934A7B
:100CC000506820F003000843506070478F48406828
:100CD00000F00C007047014600208C4A506820F05C
:100CE000F00008435060704701460020874A506872
:100CF00020F4E06008435060704701460020834ABA
:100D0000506820F4605040EAC1005060704729B13B
:100D10007E4A527A02437D4B5A7204E07B4A527AF1
:100D200082437A4B5A7270477B49D83108607047CA
:100D300001460020754A506820F440400843506046
:100D400070470021714A20321170704A82F82010D9
:100D5000012802D004280AD104E001216B4A203284
:100D6000117005E00521694A2032117000E000BFD2
:100D700000BF70476949086070476449096A0143C8
:100D8000624A11627047654944390860704730B55E
:100D900000210022002400235C4D6D6805F00C0149
:100DA00021B1042905D0082923D105E05C4D056057
:100DB00022E05B4D05601FE0544D6D6805F4701234
:100DC000524D6D6805F48034022505EB92421CB942
:100DD000544D554305600BE04C4D6D6805F40035EE
:100DE0001DB1504D5543056002E04D4D5543056022
:100DF00002E04B4D056000BF00BF444D6D6805F03B
:100E0000F0010909484D6B5C0568DD4045603F4DC8
:100E10006D6805F4E061090A434D6B5C4568DD408F
:100E200085603A4D6D6805F46051C90A3E4D6B5CB2
:100E30004568DD40C560354D6D6805F44041890B5E
:100E40003A4D6B5CC568B5FBF3F5056130BD29B162
:100E50002E4A526902432D4B5A6104E02B4A5269D3
:100E600082432A4B5A61704729B1284A926902434A
:100E7000264B9A6104E0254A92698243234B9A618A
:100E8000704729B1214AD2690243204BDA6104E05C
:100E90001E4AD26982431D4BDA61704729B11B4A51
:100EA000D2680243194BDA6004E0184AD2688243E0
:100EB000164BDA60704729B1144A12690243134B8A
:100EC0001A6104E0114A12698243104B1A6170479B
:100ED00012494039086070470F49C86470470B4990
:100EE000C87170470948406A40F0807007494862FD
:100EF000704701460020054A92680A400AB1012065
:100F000000E00020704701498872704700100240DD
:100F10000000FFF8FFFFF6FE00004242800442425C
:100F200000127A0000093D00140000202400002077
:100F300029B1504A128802434E4B1A8004E04D4AB0
:100F4000128882434B4B1A8070474A48001D008824
:100F500040F010004749091D088070474548001DB2
:100F600000884FF6EF7108404249091D088070471C
:100F7000002140481C300188001F008841EA0040E1
:100F8000704700B50246FFF7E0FF100C39491831F1
:100F90000880091D0A80FFF7E1FF00BD00B5024689
:100FA000FFF7D3FFC2F30340324908310880091D1F
:100FB0000A80FFF7D3FF00BD00B50246FFF7C5FF6B
:100FC000100C2C4920310880091D0A80FFF7C6FF4C
:100FD00000BD00202749103109880907080B254961
:100FE000143109880843704700BF2248001D00885B
:100FF00000F020000028F8D070471E48001D00882F
:101000004FF6F77108401B49091D088000BF1948B9
:10101000001D008800F008000028F8D07047014645
:101020000020144A121D12880A400AB1012000E073
:10103000002070470F49091D098881430D4A121D80
:1010400011807047014600200A4A121D12880A408A
:10105000D0B2084A12880A4012B108B1012000E05B
:10106000002070470349091D09888143014A121D68
:10107000118070470028004010B50446FE488442A5
:1010800008D10121C014FFF709FF0021E014FFF788
:1010900005FFC4E0B4F1804F08D101210846FFF7F5
:1010A0000AFF00210120FFF706FFB8E0F348844261
:1010B00008D101210220FFF7FEFE00210220FFF7E8
:1010C000FAFEACE0EE48844208D101210420FFF78B
:1010D000F2FE00210420FFF7EEFEA0E0E948844282
:1010E00008D101210820FFF7E6FE00210820FFF7C4
:1010F000E2FE94E0E448844208D101211020FFF789
:10110000DAFE00211020FFF7D6FE88E0DF48844297
:1011100008D101212020FFF7CEFE00212020FFF77B
:10112000CAFE7CE0DA48844208D101214014FFF76E
:10113000B5FE00216014FFF7B1FE70E0D54884428F
:1011400009D10121C804FFF7A9FE00214FF40020B6
:10115000FFF7A4FE63E0D048844209D101210805CD
:10116000FFF79CFE00214FF48010FFF797FE56E03A
:10117000CA48844209D101214805FFF78FFE0021AA
:101180004FF40010FFF78AFE49E0C548844208D1B9
:1011900001214020FFF78FFE00214020FFF78BFE4A
:1011A0003DE0C048844208D101218020FFF783FE42
:1011B00000218020FFF77FFE31E0BB48844208D148
:1011C00001218015FFF777FE0021A015FFF773FEC0
:1011D00025E0B648844209D101210804FFF75EFEEC
:1011E00000214FF48030FFF759FE18E0B0488442E8
:1011F00009D101214804FFF751FE00214FF40030CE
:10120000FFF74CFE0BE0AB48844208D10121880473
:10121000FFF744FE00214FF48020FFF73FFE10BD92
:1012200000220288944B98420ED0994B98420BD0E2
:10123000B0F1804F08D0914B984205D0904B984226
:1012400002D0904B984204D14FF68F731A404B88CE
:101250001A438D4B984207D08C4B984204D04FF6DE
:10126000FF431A40CB881A4302808B8883850B8802
:101270000385814B98420BD0854B984208D08B4B0D
:10128000984205D08A4B984202D08A4B984201D1AD
:101290000B7A038601238382704770B500240022F5
:1012A0000023058C4FF6FE7635400584028C83883A
:1012B000048B4FF68F752C40B51E2C400D882C43A7
:1012C000751E2A400D892A434D882A436A4DA8423B
:1012D0000BD06F4DA84208D0744DA84205D0744D74
:1012E000A84202D0734DA84213D14FF6F7752A4099
:1012F0004D892A434FF6FB752A408D882A434FF6C5
:10130000FF652B404FF6FF552B408D892B43CD8930
:101310002B4383800483CD888586028470BD70B59D
:10132000002400220023058C4FF6EF76354005841B
:10133000028C8388048B48F6FF752C404FF6FF45DE
:101340002C400D884FF6FF7606EA05252C434FF614
:10135000DF752A400D8906EA05152A434D8806EAFD
:1013600005152A43444DA84202D0494DA8421DD13B
:101370004FF67F752A404D894FF6FF7606EA051530
:101380002A434FF6BF752A408D8806EA05152A4381
:101390004FF6FF352B404FF2FF752B408D8906EA43
:1013A00085052B43CD8906EA85052B43838004837D
:1013B000CD880587028470BD70B50024002200230B
:1013C000058C4FF6FF6635400584028C8388848B3C
:1013D0004FF68F752C404FF6FC752C400D882C4332
:1013E0004FF6FF552A400D894FF6FF7606EA052590
:1013F0002A434D8806EA05252A431F4DA84202D0FC
:10140000234DA8421DD14FF2FF752A404D894FF65A
:10141000FF7606EA05252A434FF6FF352A408D88D8
:1014200006EA05252A434EF6FF752B404DF6FF755B
:101430002B408D8906EA05152B43CD8906EA051553
:101440002B4383808483CD888587028470BD70B5EB
:10145000002200230024058C4EF6FF7635400584DB
:10146000038C8488828B48F6FF752A404FF6FF452F
:101470002A400D8820E00000002C014000040040BC
:1014800000080040000C0040001000400014004024
:1014900000340140004C0140005001400054014024
:1014A00000180040001C00400020004000400140A7
:1014B00000440140004801404FF6FF7606EA05254A
:1014C0002A434DF6FF752B400D8906EA05352B435F
:1014D0004D8806EA05352B43FA4DA84202D0FA4D55
:1014E000A84208D14BF6FF752C408D894FF6FF7648
:1014F00006EA85152C4384808283CD88A0F840506D
:10150000038470BD828B4FF2FF331A408283828B3B
:101510004FF6FF7303EA01231A4382837047F0B545
:101520000C461546002200210026078C4EF6FF7C53
:1015300007EA0C070784828B018C4FF6FF7707EAD6
:10154000043640F6FF473A404FF6FF7707EA052793
:101550003A434FF6FF7707EA03373A43D94FB84289
:101560000ED0D94FB8420BD0B0F1804F08D0D74F32
:10157000B84205D0D64FB84202D0D64FB84206D1B5
:101580004DF6FF77394046F48057394305E047F67A
:10159000FF57394044F48057394382830184F0BDBA
:1015A000828B4FF6F3731A408283828B0A438283C5
:1015B0007047F0B50C461546002200210026078C26
:1015C0004FF6FF6C07EA0C070784828B018C4FF6FD
:1015D000FF7707EA04264FF60C773A404FF6FF777D
:1015E00007EA03172F433A43B64FB8420ED0B64F1F
:1015F000B8420BD0B0F1804F08D0B44FB84205D0FC
:10160000B34FB84202D0B34FB84206D14FF6FF579E
:10161000394046F48077394305E04FF2FF573940AF
:1016200044F48077394382830184F0BD028B4FF20A
:10163000FF331A400283028B4FF6FF7303EA012344
:101640001A4302837047F0B50C461546002200216C
:101650000026078C4FF6EF7C07EA0C070784028B05
:10166000018C4FF6FF7707EA041640F6FF473A4031
:101670004FF6FF7707EA03373A434FF6FF7707EA5B
:1016800005273A438F4FB8420ED08F4FB8420BD048
:10169000B0F1804F08D08D4FB84205D08C4FB84282
:1016A00002D08C4FB84206D14FF6DF77394046F072
:1016B0001007394305E04FF65F77394044F01007D3
:1016C000394302830184F0BD028B4FF6F3731A4055
:1016D0000283028B0A4302837047F0B50C4615461D
:1016E00000220021068C4FF6FE773E400684028BD6
:1016F000018C4FF60C7632407E1C06EA03162E4310
:101700003243704EB0420ED06F4EB0420BD0B0F1AB
:10171000804F08D06D4EB04205D06D4EB04202D021
:101720006C4EB04206D14FF6FD76314044F00106D2
:10173000314305E04FF6F576314044F00106314380
:1017400002830184F0BD70B505460C465D488542B4
:101750000ED05D4885420BD0B5F1804F08D05B4874
:10176000854205D05A48854202D05A48854200D168
:1017700000E000BF208850B92389A28861882846EC
:10178000FFF7ABFFE1882846FFF79EFF25E02088A2
:1017900004280AD12389A28861882846FFF753FFCD
:1017A000E1882846FFF742FF17E0208808280AD181
:1017B0002389A28861882846FFF7FBFEE188284636
:1017C000FFF7EEFE09E02389A28861882846FFF72B
:1017D000A6FEE1882846FFF795FE70BD2DE9F04191
:1017E00005460C4600260127608808B9022600E05D
:1017F0000026A088012801D1022700E001272088C7
:10180000A0B92389A28861882846FFF766FFE1888E
:101810002846FFF759FF23893A4631462846FFF705
:1018200012FFE1882846FFF701FF13E02389A28811
:1018300061882846FFF707FFE1882846FFF7F6FE94
:1018400023893A4631462846FFF747FFE188284674
:10185000FFF73AFFBDE8F0810A884B881A438B886E
:101860001A43CB881A430B891A434B891A438B8935
:101870001A43A0F8442070474FF6FF718180002181
:101880000180C18041800172704700210180418048
:101890008180C180018141818181C18170470021A6
:1018A00001804180012181800021C1800181704738
:1018B0000021018041808180C1800181418181813D
:1018C00070470000002C014000340140000400403B
:1018D00000080040000C004021B1028842F00102E3
:1018E000028004E002884FF6FE731A4002807047BF
:1018F00031B1B0F8442042F40042A0F8442005E0A1
:10190000B0F84420C2F30E02A0F8442070471AB188
:1019100083890B43838102E083898B4383817047F2
:101920008182704741EA0203A0F8483070471AB13B
:1019300083890B43838102E083898B4383817047D2
:1019400001894FF6F8721140018170470A46002163
:1019500001894FF68F73194011430181704730B5EB
:1019600004460D4629462046FFF7F0FF208940F047
:101970000700208130BD2DE9F04104460D46164692
:101980001F46602D06D13B46012231462046FFF717
:101990005AFE05E03B46012231462046FFF79DFEF8
:1019A00029462046FFF7D2FF208940F0070020811A
:1019B000BDE8F08130B50C4600210189C9B24FF66F
:1019C000FF7505EA0325154325432943018130BDF1
:1019D0002DE9F04105460E46174698460024434639
:1019E0003A4631462846FFF7E5FF2C894FF6F87056
:1019F000044044F007044FF68F70044044F0700434
:101A00002C81BDE8F081F0B504460D4616461F4610
:101A10003B46324629462046FFF7CCFF208940F45A
:101A200080402081F0BD0185828270470A460021F6
:101A300001884FF68F731940114301807047F0B54C
:101A40000C4615461E460021002200230189028B08
:101A5000038C4FF6F877394021434FF6FC473A4064
:101A600040F201173A434FF6DD773B404FF6FF77E0
:101A700007EA06172F433B43018102830384F0BD2D
:101A80000A460021018B4FF68F73194011430183E1
:101A900070470A460021018B48F6FF7319404FF644
:101AA000FF7303EA02231943018370470A460021AA
:101AB000818B4FF68F7319401143818370470A461B
:101AC0000021818B48F6FF7319404FF6FF7303EA3C
:101AD000022319438183704721B1028842F08002BA
:101AE000028004E002884FF67F731A40028070473C
:101AF00021B1828842F00402828004E082884FF69D
:101B0000FB731A408280704721B1828842F008023C
:101B1000828004E082884FF6F7731A408280704713
:101B200021B1828842F00102828004E082884FF66F
:101B3000FE731A40828070470A460021018B4FF6DF
:101B4000F77319401143018370470A460021018B46
:101B50004FF2FF7319404FF6FF7303EA0223194354
:101B6000018370470A460021818B4FF6F7731940B5
:101B70001143818370470A460021818B4FF2FF7326
:101B800019404FF6FF7303EA02231943818370471C
:101B90000A460021018B4FF6FB7319401143018364
:101BA00070470A460021018B4FF6FF3319404FF66C
:101BB000FF7303EA02231943018370470A46002199
:101BC000818B4FF6FB7319401143818370470A469E
:101BD0000021818B4FF6FF3319404FF6FF7303EA64
:101BE00002231943818370470A460021018B4FF677
:101BF0007F7319401143018370470A460021018B0E
:101C0000C1F30E014FF6FF7303EA02231943018368
:101C100070470A460021818B4FF67F7319401143AC
:101C2000818370470A460021818BC1F30E014FF674
:101C3000FF7303EA02231943818370470A46002198
:101C4000018C4FF6FD7319401143018470470A4619
:101C50000021018C4FF6F77319401143018470473E
:101C60000A460021018C4FF6DF7319404FF6FF73CF
:101C700003EA02131943018470470A460021018CCC
:101C80004FF67F7319404FF6FF7303EA02131943AF
:101C9000018470470A460021018C4FF6FF5319401A
:101CA0004FF6FF7303EA02231943018470470A4683
:101CB0000021018C4FF2FF7319404FF6FF7303EAC6
:101CC00002231943018470470A460021018C4DF616
:101CD000FF7319404FF6FF7303EA0233194301847F
:101CE000704730B5002301248C40A3B2048C9C4380
:101CF0000484048C02FA01F5ADB22C43048430BD97
:101D000030B5002304248C40A3B2048C9C4304848B
:101D1000048C02FA01F5ADB22C43048430BD70B5D9
:101D20000346002000241846183001258D40ACB22F
:101D30001D8CA5431D8409B1082909D100EB610060
:101D4000056825F0700505600568154305600EE01F
:101D50000D1FC5F34E052844056825F4E0450560D0
:101D600005684FF6FF7606EA02263543056070BD2A
:101D700021B1028842F00202028004E002884FF69C
:101D8000FD731A400280704721B1028842F00402BC
:101D9000028004E002884FF6FB731A40028070470D
:101DA00021B1828842F08002828004E082884FF66E
:101DB0007F731A408280704702884FF6F7731A408B
:101DC000028002880A430280704782884FF68F7330
:101DD0001A40828082880A438280704702894FF6C7
:101DE000F8731A40028102890A430281704702890E
:101DF0004FF67F731A40028102890A4302817047BD
:101E0000818470478185704781867047018770475C
:101E100081877047A0F84010704702884FF6FF4353
:101E20001A40028002880A43028070470146888E69
:101E300070470146088F70470146888F70470146FA
:101E4000B1F8400070470146888C70470146088D04
:101E5000704702460020138A0B400BB1012000E0BE
:101E600000207047CA430282704730B50246002006
:101E700000230024158A05EA0103958905EA010477
:101E800013B10CB1012000E0002030BDCA43028232
:101E90007047000010B50446FB48844209D1012177
:101EA0008803FEF7FBFF00214FF48040FEF7F6FFAA
:101EB00032E0F648844209D101214804FEF7FBFFD5
:101EC00000214FF40030FEF7F6FF25E0F048844291
:101ED00009D101218804FEF7EEFF00214FF4802094
:101EE000FEF7E9FF18E0EB48844209D10121C8045C
:101EF000FEF7E1FF00214FF40020FEF7DCFF0BE0CE
:101F0000E548844208D101210805FEF7D4FF0021ED
:101F10004FF48010FEF7CFFF10BD2DE9F04786B0DB
:101F200005460E460024A24600BFA1460027B08900
:101F300000B100BF2F462C8A4CF6FF700440F08899
:101F400004432C82AC894EF6F3100440B0883189EA
:101F50000843718908430443AC81AC8A4FF6FF40C3
:101F60000440B0890443AC8201A8FEF710FFC648C4
:101F7000874202D1DDF810A001E0DDF80CA0A889AD
:101F800000F4004040B10AEBCA0000EB0A103168CF
:101F90004900B0FBF1F807E00AEBCA0000EB0A10B9
:101FA00031688900B0FBF1F86420B8FBF0F004015F
:101FB0002009642101FB1089A88900F4004040B188
:101FC000322000EBC900B0FBF1F000F00700044341
:101FD00008E0322000EB09106421B0FBF1F000F0C2
:101FE0000F0004432C8106B0BDE8F0874FF4165172
:101FF000016000218180C18001810C21418100218B
:102000008181704710B502460020108A4FF2FF030D
:1020100018400B884C8823438C882343CC88234367
:102020001843108210BD0021018041808180C18051
:10203000704721B1828942F40052828104E0828992
:102040004DF6FF731A4082817047F0B503460024B5
:1020500000260025002040F66A17B94200D100BFD3
:102060001846C1F3421401F01F06012707FA06F5CE
:10207000012C01D10C3004E0022C01D1103000E021
:1020800014301AB107682F43076002E00768AF43B6
:102090000760F0BD1AB1838A0B43838202E0838A12
:1020A0008B4383827047028A4FF6F0731A40028294
:1020B000028A0A430282704782894FF2FF731A40F4
:1020C000828182890A438281704721B1828942F0EC
:1020D0000202828104E082894FF6FD731A408281F8
:1020E0007047028A4FF6DF731A400282028A0A435F
:1020F0000282704721B1028A42F48042028204E0E7
:10210000028A4BF6FF731A4002827047C1F308023D
:102110008280704701468888C0F308007047818933
:1021200041F0010181817047028BD2B20283028BA0
:1021300042EA012202837047028B02F47F4202834B
:10214000028B0A430283704721B1828A42F0200247
:10215000828204E0828A4FF6DF731A4082827047DF
:1021600021B1828A42F01002828204E0828A4FF614
:10217000EF731A408282704721B1828A42F00802CE
:10218000828204E0828A4FF6F7731A408282704797
:1021900021B1828942F40042828103E08289C2F344
:1021A0000E028281704721B1828A42F400628282EB
:1021B00004E0828A4FF2FF731A4082827047828A5B
:1021C0004FF6FB731A408282828A0A4382827047EA
:1021D00021B1828A42F00202828204E0828A4FF6B2
:1021E000FD731A408282704702460020B1F5007FDD
:1021F00000D100BF13880B400BB1012000E000208C
:10220000704701F40072B2F5007F00D100BFCA43ED
:102210000280704770B5024600240023002500208C
:1022200040F66A16B14200D100BFC1F3421501F079
:102230001F03012606FA03F3012D02D196893340CC
:1022400006E0022D02D1168A334001E0968A33401F
:102250000C12012606FA04F41688344013B10CB1AE
:10226000012000E0002070BD10B50022002340F6E0
:102270006A14A14200D100BF0A1201249440A3B203
:10228000DC43048010BD00000038014000440040E1
:1022900000480040004C00400050004010B500F0E5
:1022A000EFFD1F21FE4803F072FD10BD2DE9FE4F2A
:1022B000FB48407801287DD10020F9498870C8206A
:1022C00003F001FB02F03AFFF54890F80390012477
:1022D00039E0012C05D14FEA4900C0F3C0108DF858
:1022E0000A00022C05D14FEA8900C0F3C0108DF816
:1022F0000900032C05D14FEAC900C0F3C0108DF8C6
:102300000800042C05D14FEA0910C0F3C0108DF865
:102310000700052C05D14FEA4910C0F3C0108DF815
:102320000600062C05D14FEA8910C0F3C0108DF8C5
:102330000500072C05D14FEAC910C0F3C0108DF875
:102340000400601CC4B2072CC3DD9DF80500012801
:1023500005D19DF80500401CC0B28DF805009DF820
:102360000600012805D19DF80600801CC0B28DF83A
:1023700006009DF80700012805D19DF80700C01C44
:10238000C0B28DF807009DF80800012805D19DF81E
:102390000800001DC0B28DF808009DF80900012852
:1023A00005D19DF80900401DC0B28DF809009DF8C7
:1023B0000A0000E0ADE0012805D19DF80A00801D6B
:1023C000C0B28DF80A009DF80400B6490978884229
:1023D00023D09DF80500B349097888421DD09DF8A7
:1023E0000600B0490978884217D09DF80700AD492A
:1023F0000978884211D09DF80800AA4909788842D6
:102400000BD09DF80900A7490978884205D09DF8AE
:102410000A00A449097888427BD1A148D0F8070076
:102420003C21B0FBF1F0C5B29D48D0F80700B0FBED
:10243000F1F201FB12069A48D0F80B00B0FBF1F064
:10244000C7B29748D0F80B00B0FBF1F201FB1208BD
:102450009448007807287AD2DFE800F0B404213EDF
:102460005C7A97009DF804008E490978884215D15E
:102470008D480078A84206D18C480078B04202D13D
:10248000012003F06CF888480078B84206D18748EC
:102490000078404502D1002003F061F8B1E09DF8DA
:1024A000050080490978884215D17F480078A84204
:1024B00006D17E480078B04202D1012003F04FF8E7
:1024C00079480078B84206D178480078404502D172
:1024D000002003F044F894E09DF806007149097863
:1024E000884215D170480078A84206D16F4800781C
:1024F000B04202D1012003F032F86B480078B842B4
:1025000006D16A480078404502D1002003F027F840
:1025100077E077E09DF8070062490978884215D195
:1025200061480078A84206D160480078B04202D1E4
:10253000012003F014F85C480078B84206D15B48EB
:102540000078404502D1002003F009F859E057E037
:102550009DF8080053490978884215D152480078FF
:10256000A84206D151480078B04202D1012002F0C1
:10257000F6FF4D480078B84206D14C4800784045F7
:1025800002D1002002F0EBFF3BE09DF80900454935
:102590000978884215D144480078A84206D14348BA
:1025A0000078B04202D1012002F0D9FF3E48007805
:1025B000B84206D13D480078404502D1002002F0E3
:1025C000CEFF1EE09DF80A00C01F364909788842F8
:1025D00015D135480078A84206D134480078B04279
:1025E00002D1012002F0BBFF2F480078B84206D18B
:1025F0002E480078404502D1002002F0B0FF00E0F4
:1026000000BF00BF2648807801286BD100202449F4
:102610004870C82003F057F902F090FD2048D0F828
:102620000F003C21B0FBF1F000F0FF0A1C48D0F88D
:102630000F00B0FBF1F201FB120B1D48007810BB3C
:1026400001201B4908701848007850441949087047
:1026500016480078584418490870084600783C2805
:1026600008DB084600783C38087012480078401CA7
:10267000104908700F480078182804DB0D480078CE
:1026800018380C490870084800780A4909788842C7
:102690002BD10648007808490978884225D10DE0F9
:1026A0007C0000202B0000203C0000203D0000208A
:1026B00028000020290000202A0000204FF480710B
:1026C0006948FEF7A8F9012805D1002067498870FC
:1026D00002F045FF09E0002064498870012002F003
:1026E0003EFF02E00020624908704FF480715E48AE
:1026F000FEF791F9012806D15C49087001210320F9
:1027000002F068FF06E0002058490870002103200D
:1027100002F060FF02F096FF009003F07DFC534949
:10272000C1F81700BDE8FE8F10B552A003F0CEFD32
:10273000032002F02BFB10BD10B556A003F0C6FD20
:10274000002002F023FB10BD10B54FF48071464805
:10275000FEF761F9012807D1002002F000FF0021F7
:10276000032002F037FF06E0012002F0F8FE01210D
:10277000032002F02FFF10BD10B54EA003F0A6FD00
:10278000022002F003FB0121084602F023FF10BDE6
:1027900000B589B0AFF25F00AFF273014FF4806310
:1027A000314ACDE90010082103A800F02FFA1522C4
:1027B00003A9484803F0D2FAAFF24300AFF2770121
:1027C0000123294ACDE90010042103A800F01EFAD4
:1027D000152203A93F48153003F0C0FA3D483E4991
:1027E000C1F80100084600F03AFA09B000BDFDF753
:1027F00008FDFFF753FDFFF7CBFF02F097FE02F055
:10280000BFFE02F0AFFF03F021F803F089F800F0FB
:10281000B1FC00F01EFD02F0ABFA0421022003F02F
:10282000ECF81249C1F803000421062003F0E5F892
:102830000E49C1F8070004210A2003F0DEF80B4915
:10284000C1F80B0004210E2003F0D7F80749C1F8A6
:102850000F0022A003F03AFD04E0FFF727FD034834
:1028600002F09BFCF9E70000000C01407C00002016
:10287000280000204B455931205052455353202CFD
:1028800050726F64756374696F6E204D6F64650A72
:10289000000000004B455931205052455353204C05
:1028A0004F4E47202C576966692052657365740A3C
:1028B000000000004B455932205052455353204CE4
:1028C0004F4E47202C4169724C696E6B206D6F64CE
:1028D000650A00009B0000202D0000204D4355207C
:1028E000496E69742053756363657373200A000031
:1028F000704700BFFEE700BFFEE700BFFEE700BF76
:10290000FEE770477047704700204FF0E021886174
:10291000704710B540F225511E48FFF77BFC98B177
:1029200040F225511B48FFF79FFC1A48FFF7F2FBC6
:10293000044621461748FFF7E9FB00BF80211548F0
:10294000FFF752FC0028F9D010BD10B540F2255118
:102950001148FFF75FFC98B140F225510E48FFF790
:1029600083FC0D48FFF7D6FB044621460A48FFF7D3
:10297000CDFB00BF80210848FFF736FC0028F9D0C6
:1029800010BD10B50120FEF75DFB10B10120FEF770
:1029900069FB10BD003801400048004070B5054695
:1029A0000024002600BF22E0D5F80120C4EBC403B8
:1029B00003EB43031A44B2F8092091B2D5F8012081
:1029C000C4EBC40303EB43031A44D2F80500FEF73B
:1029D00022F850B9D5F80100C4EBC40101EB410164
:1029E000415C01208840304386B2601CC4B2BC48C0
:1029F0000078A042D8DC304670BD70B50546002492
:102A00000026B8480078401CB6490870084600788F
:102A10001E2804DB002008700120B3490870B2486A
:102A20000078012856D10020AF4908702846FFF7EA
:102A3000B5FF0446AD48007830B101280BD002281C
:102A400019D0032845D13CE024B1A94804800120D5
:102A5000A64908703DE0A6480088844207D10220BC
:102A6000A2490870A248008840F4805602E0002085
:102A70009E4908702DE09E48008884420AD00020BC
:102A80009A4908709B4908809948008840F400568C
:102A9000304670BD96480088844211D19548008820
:102AA000401C9449088008460088642808DB002000
:102AB000088003208D49087044F400463046E8E75A
:102AC00007E08B480088844202D0002087490870C4
:102AD00000BF00BF0020DCE770B5054600240026DB
:102AE0002846FFF78AFF064606B970BD06F4005077
:102AF00028B3002420E0D5F80100C4EBC40101EBA9
:102B00004101415C01208840304098B1D5F8010076
:102B1000C4EBC40101EB41010844D0F80D0048B1F9
:102B2000D5F80110C4EBC40202EB42021144D1F803
:102B30000D008047601CC4B22878A042DBDC06F49C
:102B4000004028B3002420E0D5F80100C4EBC40104
:102B500001EB4101415C01208840304098B1D5F83B
:102B60000100C4EBC40101EB41010844D0F811009D
:102B700048B1D5F80110C4EBC40202EB4202114483
:102B8000D1F811008047601CC4B22878A042DBDC79
:102B900000BFAAE710B501218807FFF766F930B139
:102BA00001218807FFF772F94D48FFF795FF10BD27
:102BB0007FB541F61F45092401210846FEF761F95A
:102BC000ADF80850ADF804400020ADF80A00ADF8AB
:102BD000060001A9A007FEF723FB0122114690077A
:102BE000FEF795FE1C208DF8000000208DF80100F6
:102BF00002208DF8020001208DF803006846FDF7E1
:102C000086FB01218807FEF767FE7FBD2DE9F043B3
:102C100087B007460C4615461E46DDE90E89CDF8FD
:102C20000540CDF80950CDF80D6033480078401CC0
:102C300040B231490870C0B28DF80400CDF815904B
:102C4000CDF811802D480078401C2C4908701522C1
:102C500001A9384603F082F807B0BDE8F08338B523
:102C60000446002504B938BD244800782070207837
:102C70000C2801DD0C20207000252AE054F8011FEB
:102C8000C5EBC50202EB42021144D1F8010001215B
:102C9000FEF7EAF803208DF8020048208DF80300C3
:102CA0002068C5EBC50101EB41010844B0F80900FB
:102CB00080B2ADF8000054F80119C5EBC50202EB73
:102CC00042021144D1F805006946FDF711FE681C67
:102CD000C5B22078A842D1DCFFF76AFF00BFC2E787
:102CE0002D0000203200002034000020350000209C
:102CF00038000020360000203A0000203300002079
:102D000008B501210420FEF7AFF801210846FEF7BF
:102D1000ABF801218803FEF7A7F84FF40070ADF877
:102D2000000018208DF8030003208DF8020069468A
:102D30005F48FDF7DDFD4FF48060ADF80000042032
:102D40008DF8030069465A48FDF7D2FD0121102095
:102D5000FEF78AF801218804FEF793F8012108465E
:102D6000FEF782F801215348FDF793FE4FF480608F
:102D7000ADF8000018208DF8030003208DF8020044
:102D800069464D48FDF7B4FD4FF40060ADF8000012
:102D900004208DF8030069464748FDF7A9FD08BDEA
:102DA0001FB54FF4E13000900020ADF80400ADF8FD
:102DB0000600ADF80800ADF80C000C20ADF80A00D4
:102DC00069463E48FFF7A9F8012240F225513B48E9
:102DD000FFF73BF901213948FFF72BF9402137482C
:102DE000FFF70FFA4FF4E13000900020ADF8040037
:102DF000ADF80600ADF80800ADF80C000C20ADF8F9
:102E00000A0069462E48FFF788F8012240F2255152
:102E10002B48FFF71AF901212948FFF70AF9402149
:102E20002748FFF7EEF91FBD08B525208DF80000F3
:102E300000208DF801008DF8020001208DF80300BC
:102E40006846FDF764FA27208DF8000000208DF811
:102E5000010001208DF802008DF803006846FDF79F
:102E600056FA08BD10B5044621461448FFF74EF93E
:102E700000BF80211148FFF7B7F90028F9D010BD35
:102E800010B5FFF73DFFFFF78BFFFFF7CDFF10BD3C
:102E900070B504460D46E1B20848FFF737F900BFA8
:102EA00080210648FFF7A0F90028F9D0204670BD20
:102EB00000080140100014000010014000380140DB
:102EC00000480040F0B503460C461546642093FBCD
:102ED000F0F0C6B2642093FBF0F700FB1730C1B2EC
:102EE000132E02DD01F16400C1B20846CF1701EBD9
:102EF000977701EBA707BAB2072092FBF0F700FB28
:102F0000172082B25719601EDFF8F4C31CF80000C6
:102F1000384482B2CF1701EB9777BF10A1EB870738
:102F20001FB9032C01DA501E82B2072092FBF0F782
:102F300000FB1720C0B2F0BD2DE9FF4707460E4643
:102F400092464FF000083546B146344607B126B9DF
:102F50004FF0FF3004B0BDE8F0874FF00008DAE032
:102F6000781C10F80800172876D2DFE800F09C9D46
:102F70009ECECE9FA0A1A6CECECECEA7B1AD0C1F29
:102F8000374F627689002878DE4908700846017854
:102F9000DDA003F09BF9DB480078012802D102F0A4
:102FA000DEFA02E0002002F0DAFAAFE06878D549F4
:102FB000487008464178DAA003F088F9D148407893
:102FC000012805D1CF484178002002F0D9FC04E067
:102FD000CC484178002002F0D3FC97E0A878C9499A
:102FE000887008468178D5A003F070F9C5488078CC
:102FF000012805D1C3488178012002F0C1FC04E01A
:10300000C0488178012002F0BBFC7FE0D5F80300C6
:10301000BC49C1F803000846D0F80310CFA003F064
:1030200055F9B848D0F803100422022002F0D0FC71
:103030006CE0D5F80700B349C1F807000846D0F89E
:103040000710CDA003F042F9AE48D0F807100422D3
:10305000062002F0BDFC59E057E0D5F80B00A94965
:10306000C1F80B000846D0F80B10CBA003F02EF9E6
:10307000A448D0F80B1004220A2002F0A9FC45E075
:10308000D5F80F009F49C1F80F000846D0F80F107F
:10309000C9A003F01BF99B48D0F80F1004220E20A2
:1030A00002F096FC32E031E030E02FE02EE02DE03F
:1030B0000021012002F08EFA28E027E099F80010A4
:1030C000C5A003F003F921E0C6A003F0FFF81DE05E
:1030D000D4F80700A17962792379CDE90032CDE9EE
:1030E0000210E378A2782188C3A003F0EFF8E27819
:1030F000A1782088FFF7E6FECA4908702079CA49FE
:1031000008706079C949087000E000BF00BF08F18D
:10311000010000F0FF08387840453FF721AF00205C
:1031200018E7C3480068401CC14908607047C048A0
:1031300000687047012080F3138800BF00BFBD48BE
:10314000006800F4E060BC490843001DB94908600C
:10315000BFF3408F00BF00BFFEE710B50121B748A5
:10316000FEF783FE28B10121B448FEF78FFEFFF77A
:10317000D8FF10BD7FB541F61F450924012102206B
:10318000FDF77FFEADF80850ADF804400020ADF823
:103190000A00ADF8060001A9A848FEF741F801228F
:1031A0001146A648FEF7B3FB1D208DF80000002055
:1031B0008DF8010002208DF8020001208DF8030037
:1031C0006846FDF7A4F801219C48FEF785FB7FBD0A
:1031D00008B50020009040F225519948FFF71AF8F1
:1031E00068B140F225519648FFF73EF89448FEF743
:1031F00091FFC0B200900121684600F030FA08BD8E
:1032000070B505460E4600240DB9601E70BD002441
:103210001BE0295D8A48FEF779FF00BF80218848BE
:10322000FEF7E2FF0028F9D0022C0DD3285DFF281D
:103230000AD155218248FEF769FF00BF80218048EE
:10324000FEF7D2FF0028F9D0641CB442E1D3304627
:10325000DCE700B587B001210420FDF705FE012160
:103260004804FDF70EFE01210846FDF7FDFD042090
:10327000ADF8180018208DF81B0003208DF81A00F7
:1032800006A97048FDF734FB0820ADF818000420AB
:103290008DF81B0006A96B48FDF72AFB4FF416506A
:1032A00002900020ADF80C00ADF80E00ADF8100053
:1032B000ADF814000C20ADF8120002A96048FEF72A
:1032C0002CFE012240F225515D48FEF7BEFE012191
:1032D0005B48FEF7AEFE40215948FEF792FF2620DC
:1032E0008DF8040000208DF8050001208DF80600FF
:1032F0008DF8070001A8FDF70AF807B000BD00002F
:103300004E6600087C0000204576743A20455645FC
:103310004E545F4F4E4F4646202564200A00000061
:103320004576743A204556454E545F54494D455FA5
:103330004F4E4F4646202564200A00004576743AD9
:10334000204556454E545F434F554E54444F574EBB
:103350005F4F4E4F4646202564200A004576743A5A
:103360004556454E545F5745454B5F524550454184
:10337000542025640A0000004576743A4556454EAF
:10338000545F54494D455F4F4E5F4D494E5554452E
:103390002025640A000000004576743A4556454EE3
:1033A000545F54494D455F4F46465F4D494E555415
:1033B000452025640A0000004576743A4556454E7E
:1033C000545F434F554E54444F574E5F4D494E55F1
:1033D00054452025640A0000525353492025640AAD
:1033E000000000005452414E53504152454E545F2C
:1033F00044415441200A0000574946495F4E545009
:10340000203A205B25642D25642D2564202530324B
:10341000643A253032643A253032645D5B25645D60
:10342000200A00002B0000203C0000203D0000206E
:10343000400000200CED00E00000FA050004004010
:10344000004400400008014010B504461CB9F9A032
:1034500002F03CFF10BDE0686060E068A06000BF63
:10346000F8E710B504461CB9F2A002F02FFF10BD1A
:103470000020E0606060A060206000BFF7E710B54A
:1034800004462CB9EBA002F021FF4FF0FF3010BD35
:103490002068FCE710B504462CB9E6A002F016FF40
:1034A0004FF0FF3010BD6068A168884201D1002054
:1034B000F8E76068A168884203D2A0686168401A92
:1034C000F0E72046FFF7DBFF6168A268891A401A1F
:1034D000E8E770B504462CB9D6A002F0F7FE4FF02D
:1034E000FF3070BD2046FFF7CAFF05462046FFF7B4
:1034F000D1FF281AF5E72DE9F04104460F4616469C
:1035000000252CB9CBA002F0E1FE681EBDE8F081D9
:103510002FB9CFA002F0DAFE4FF0FF30F6E7606877
:10352000A168884214D22046FFF7B4FFB04201D907
:10353000304602E02046FFF7ADFF054661682A46A7
:10354000384602F00BFC6068284460602846DDE7DE
:103550002046FFF794FF6168E268891A401AB0427A
:103560000AD9354661682A46384602F0F7FB60689A
:10357000284460602846C9E72046FFF780FF61685D
:10358000E268891A451A61682A46384602F0E6FB65
:10359000E0686060721B79192046FFF7ACFF0544B4
:1035A0002846B3E72DE9F04104460F4615460026AC
:1035B0002CB9AEA002F08AFE701EBDE8F0812FB9D2
:1035C000B0A002F083FE4FF0FF30F6E72046FFF791
:1035D00080FFA8420AD82046FFF77BFF804641467D
:1035E000AEA002F073FE4FF0FF30E6E76068A1681E
:1035F00088422AD82046FFF742FFA168E268891A6C
:10360000461AB54213D8A0682A46394602F0A6FBEE
:10361000A0682844A0602046FFF731FFE168084415
:10362000A168884201D1E068A0602846C5E7A0688B
:103630003246394602F092FBE068A060AA1BB91935
:103640002046FFF7AFFF3044B7E7A0682A46394667
:1036500002F084FBA0682844A0602846ADE770B55E
:1036600004460D46002624B992A002F02FFE701EDB
:1036700070BD2A4621469848FFF794FF0646AE42A1
:1036800005D096A002F022FE4FF0FF30F0E7304662
:10369000EEE72DE9F04104460D460027002604B16F
:1036A00035B9294694A002F011FE0020BDE8F08152
:1036B000022603E0A05D3844C7B2761C681EB04203
:1036C000F8D83846F2E701B581B0694601AA5078CA
:1036D000087010784870BDF800000CBD014608065F
:1036E00001F47F4240EA022001F47F0240EA122006
:1036F00040EA116070472DE9F04104460E4600256E
:103700000027A8462CB98AA002F0E0FD681EBDE89B
:10371000F08100250AE0675D701B401E14F80080F0
:1037200004F80580701B401E27546D1CB5EB560F26
:10373000F1D30020EBE710B503460020541AB4FB88
:10374000F3F010BD10B50346002002FB031010BDBE
:103750002DE9F04704460E46154600273146284617
:1037600002F072FB8146214602F0A6FB804602F081
:103770007AFC07463846BDE8F0872DE9F047044655
:103780000E4615460027284602F04FFC814621468A
:1037900002F060FB8046314602F004FB07463846E3
:1037A000BDE8F087024612B102F0070028B90829E7
:1037B00001D8002070470120FCE702F00700C0F1AB
:1037C0000800884201D30020F4E70120F2E710B599
:1037D00004462CB961A002F079FD4FF0FF3010BD16
:1037E000002020606060FF20207060700020F6E7FD
:1037F00070B504460D462CB922A002F067FD4FF0CB
:10380000FF3070BD2121604802F0C1FA2A462146EE
:103810005D48801C02F0A2FA5B483B38A0F8565085
:10382000012180F83C10FFF782FC57493B3988653D
:103830000020E6E74552524F523A20696E70757487
:10384000207262206973204E554C4C0A0000000023
:103850004552524F523A20696E70757420646174FB
:1038600061206973204E554C4C0A00004552524F5E
:10387000523A20726220697320656D707479200A53
:10388000000000004552524F523A2064617461209A
:10389000697320656D707479200A00004552524F9B
:1038A000523A206E6F206D656D6F7279202564200D
:1038B0000A0000004552524F523A2067697A50750B
:1038C00074446174612062756620697320656D704F
:1038D0007479200A00000000C10100204552524FB7
:1038E000523A204661696C656420746F2072625799
:1038F00072697465200A00004552524F523A20679F
:10390000697A50726F746F636F6C53756D202C20E1
:1039100062756620697320656D707479206F7220FE
:103920006C656E206572726F72202564200A00003B
:1039300067697A427974654F726465724578636825
:10394000616E6765204572726F72202C20496C6C25
:103950006567616C20506172616D0A004552524F7B
:10396000523A2067697A50726F746F636F6C486562
:103970006164496E697420686561642069732065BB
:103980006D707479200A0000000100202DE9FC5FB1
:1039900005460C46164699460C9F4FF0000AD34642
:1039A000002001908046B9F1000F00D037B9F1A096
:1039B00002F08CFC4FF0FF30BDE8FC9F3A464946D0
:1039C000684602F0CBF9012F0CD939466846FFF75B
:1039D00092FEB0F1FF3F05D1F2A002F077FC4FF06C
:1039E000FF30E9E731462046FFF7DCFE8246BAF1B8
:1039F000000F0CD11DF8050004F007010841C6F1C5
:103A00000802FF211141084040EA080821E0BAF10C
:103A1000010F1ED1681C1DF8000004F00701C1F160
:103A20000801711AC1F10802FF21114100EA010BDE
:103A30001DF8050004F007010841019004F007009B
:103A4000C0F108010BFA01F040EA0808019848EAC1
:103A500000084046B0E72DE9F05F05460E46904667
:103A60001C460A9F4FF0000AD346D14634B9DAA06B
:103A700002F02CFC4FF0FF30BDE8F09F414630468D
:103A8000FFF790FE8146B9F1000F07D1605D06F0A7
:103A9000070107FA01F1084360551EE0B9F1010F73
:103AA0001BD1F8B206F00701C1F1080140FA01FA92
:103AB00006F00700C0F10801FF20084100EA070BEB
:103AC000681C205C40EA0A00691C6054605D06F0D6
:103AD00007010BFA01F1084360550020CCE7F8B567
:103AE00005460C4616460DB104B12EB9C4A002F02D
:103AF000EDFB4FF0FF30F8BD287800F0010098B1E1
:103B000010212278601C81542078401C20700120F4
:103B10006B1C0246002100900846FFF737FF08B1F2
:103B2000012000E0002030702878C0F3400098B1F8
:103B300011212278601C81542078401C20700120C3
:103B40006B1C0246014600900020FFF71FFF08B1E2
:103B5000012000E0002070702878C0F3800098B148
:103B600012212278601C81542078401C2070012092
:103B70006B1C0246022100900020FFF707FF08B1EE
:103B8000012000E00020B0702878C0F3C00068B1C8
:103B900013212278601C81542078401C2070AA7860
:103BA00000210120FFF7CEFDC6F803002878C0F3FE
:103BB000001090B114212278601C81542078401CA0
:103BC0002070B5F80300FFF77EFD07463A46002156
:103BD0000120FFF7B7FDC6F807002878C0F34010B2
:103BE00090B115212278601C81542078401C2070EF
:103BF000B5F80500FFF767FD07463A4600210120AA
:103C0000FFF7A0FDC6F80B002878C0F3801090B134
:103C100016212278601C81542078401C2070B5F851
:103C20000700FFF750FD07463A4600210120FFF745
:103C300089FDC6F80F0000205DE770B504460D460B
:103C4000002604B12DB979A002F040FB4FF0FF30FF
:103C500070BD28782178884203D07EA002F036FB20
:103C6000012668786178884203D07FA002F02EFB9D
:103C70000126A878A178884203D082A002F026FB12
:103C80000126D5F80300D4F80310884203D085A09C
:103C900002F01CFB0126D5F80700D4F80710884273
:103CA00003D087A002F012FB0126D5F80B00D4F850
:103CB0000B10884203D08AA002F008FB0126D5F839
:103CC0000F00D4F80F10884203D08DA002F0FEFA46
:103CD0000126D5F81300D4F81310884210D0FFF74E
:103CE00026FA8F490968401A41F27071884207D359
:103CF0008CA002F0EBFAFFF71AFA89490860012656
:103D0000D4F81710D5F8170002F0F0F910D0FFF72B
:103D10000EFA83490968401A41F27071884207D34C
:103D200088A002F0D3FAFFF702FA7D490860012665
:103D3000D4F81B10D5F81B0002F0D8F910D0FFF70B
:103D4000F6F977490968401A41F27071884207D341
:103D500082A002F0BBFAFFF7EAF971490860012678
:103D6000304675E7F8B504460D4604B105B903E1E0
:103D700008E1000067697A4465636F6D707265736E
:103D800073696F6E56616C7565204572726F722033
:103D90002C20496C6C6567616C20506172616D0A02
:103DA0000000000067697A4465636F6D7072657327
:103DB00073696F6E56616C75652067697A427974B4
:103DC000654F7264657245786368616E676520450A
:103DD00072726F72200A000067697A436F6D7072A9
:103DE00065737356616C7565204572726F72202C15
:103DF00020496C6C6567616C20506172616D0A00CE
:103E000067697A44617461506F696E743245766592
:103E10006E74204572726F72202C20496C6C65673D
:103E2000616C20506172616D0A00000067697A431D
:103E30006865636B5265706F7274204572726F7241
:103E4000202C20496C6C6567616C20506172616D3B
:103E50000A00000076616C75654F6E4F6666204300
:103E600068616E6765640A0076616C756554696D9A
:103E7000655F4F6E4F6666204368616E6765640AD2
:103E80000000000076616C7565436F756E74446F59
:103E9000776E5F4F6E4F6666204368616E6765643C
:103EA0000A00000076616C75655765656B5F526549
:103EB00070656174204368616E6765640A00000084
:103EC00076616C756554696D655F4F6E5F4D696EA7
:103ED000757465204368616E6765640A00000000C0
:103EE00076616C756554696D655F4F66665F4D6997
:103EF0006E757465204368616E6765640A00000032
:103F000076616C7565436F756E74446F776E5F4D47
:103F1000696E757465204368616E6765640A0000A8
:103F20004400002076616C7565506F7765725F4361
:103F30006F6E73756D7074696F6E204368616E6724
:103F400065640A0076616C7565656C656374726999
:103F500063204368616E6765640A000076616C7572
:103F600065467573655F6661696C75726520436847
:103F7000616E6765640A0000FDA002F0A7F94FF0CA
:103F8000FF30F8BD00202870E41C14F8030C2B4609
:103F90000122002100900846FFF75DFD14F8020C95
:103FA0002B460122114600900020FFF754FD14F823
:103FB000010C2B460122022100900020FFF74BFD4F
:103FC00001212846FFF797FB226800210120FFF717
:103FD000B2FB6870626800210120FFF7ACFB86B27B
:103FE0003046FFF770FB6880A26800210120FFF7D0
:103FF000A2FB86B23046FFF766FBA880E26800218C
:104000000120FFF798FB86B23046FFF75CFBE880A3
:10401000226900210120FFF78EFB86B23046FFF7B0
:1040200052FB288162690021DD48FFF791FB86B2CF
:104030003046FFF748FB6881A269E41E0021D94899
:10404000FFF786FB86B23046FFF73DFBA8810020D4
:1040500097E72DE9F04704460E4617461D46A04651
:104060004FF0000998F808900CB107B135B9CEA00F
:1040700002F02CF94FF0FF30BDE8F0871821D64848
:1040800001F085FEB9F1010F06D0B9F1020F12D08F
:10409000B9F1050F46D122E0CF4A4832CE4904F1AA
:1040A0000900FFF71CFD0120CB495C39087000278F
:1040B0000020286037E0C8498631A1F11F00FFF7D2
:1040C00051FE40B90E22C4498631384601F046FE01
:1040D0000E20286002E04FF0FF30CDE723E0A6F18C
:1040E0000A0204F10901BC48423801F037FEA6F18A
:1040F0000A00B9495C39C1F833000F21B6485C3871
:1041000090F85C205D3081545D3890F85C00401C74
:10411000B1495C3981F85C00032008700027002059
:10412000286000E000BF00BF0020A5E72DE9F047B0
:104130008AB00446884616460027BA46B946254640
:1041400014B1B8F1000F07D1A4A002F0BFF84FF0EE
:10415000FF300AB0BDE8F087D6B901A8FFF737FBFA
:104160002079401CC0B28DF8080060798DF80900F4
:104170000520FFF7A8FAADF80600092101A8FFF70E
:1041800088FA8DF80C000DF1040A4FF0090925E0BA
:1041900004A8FFF71CFB2879401CC0B28DF814005E
:1041A00068798DF81500B11D88B2FFF78CFAADF86B
:1041B0001200287A401CC0B28DF8180032464146E1
:1041C0000DF1190001F0CAFD182104A8FFF761FAEA
:1041D0008DF827000DF1100A4FF018094946504696
:1041E000FFF70EF80746002F04DA4A46394687489B
:1041F00002F06CF83846ACE7F0B587B005460E46DD
:10420000174600242EB982A002F060F8601E07B0A5
:10421000F0BD01A8FFF7DBFA05208DF808006E4815
:104220005C3890F83710D0F83700401C6A4A5C3A86
:10423000C2F83700C8B28DF809008DF80C50142070
:10424000FFF741FAADF806003A4631460DF10D0090
:1042500001F084FD182101A8FFF71BFA8DF81B005F
:10426000182101A8FEF7CCFF0446002C03DA2146F2
:1042700071A002F02BF8182101A8FFF7B9FA204627
:10428000C5E710B50446544967312046FFF7D5FC11
:10429000012814D170A002F019F84F498631204648
:1042A000FFF760FD28B90E224B4986310420FFF745
:1042B000A3FF1F2221464848673001F04FFDFEF75B
:1042C00036FF6B4990FBF1F201FB1200A0B969A027
:1042D00001F0FCFF404986312046FFF743FD28B935
:1042E0000E223D4986310420FFF786FF1F2221461A
:1042F0003948673001F032FD10BD2DE9FE4F804690
:104300000E4617464FF0000B002002908146824671
:10431000002534460090B8F1000F01D006B137B93E
:104320005AA001F0D3FF4FF0FF30BDE8FE8F4046AA
:10433000FFF7B0F800F0FF0ABAF1000F02D14FF01A
:10434000FF30F2E74FF0000908E1012201A94046E1
:10435000FFF7D1F88346BBF1000F07D0574800782C
:10436000FF2804D19DF80400FF28A9E0F4E0C4E090
:1043700067697A44617461506F696E747332526513
:10438000706F727444617461204572726F72202C78
:1043900020496C6C6567616C20506172616D0A0028
:1043A0000AD7233C6F12833A67697A50726F746F31
:1043B000636F6C49737375656450726F6365737373
:1043C000204572726F72202C20496C6C6567616C9D
:1043D00020506172616D0A002101002067697A50E6
:1043E000726F746F636F6C49737375656444617445
:1043F0006141636B204572726F72202C20496C6C96
:104400006567616C20506172616D0A006866000822
:1044100067697A5265706F72744461746120457285
:10442000726F72202C20496C6C6567616C20506142
:1044300072616D0A000000004552524F523A2075D9
:10444000617274207772697465206572726F722070
:104450002564200A000000006368616E6765642CB3
:10446000207265706F727420646174610A000000CC
:10447000C0270900496E666F3A20363030532072EB
:1044800065706F727420646174610A0067697A50A4
:10449000726F746F636F6C4765744F6E65506163C4
:1044A0006B6574204572726F72202C20496C6C65AC
:1044B00067616C20506172616D0A00004C00002041
:1044C0001BD1FE48007848B9FF20207060700220A0
:1044D000FB4908800120F949087034E0F848008859
:1044E000042830DDF6480088A8422CD0FF20207038
:1044F00060700220F249088025E0F2480078FF2829
:1045000003D19DF8040055281DD0EC4800780128FF
:1045100019D19DF80400EA4909886054E8480088E8
:10452000401CE74908800846008804280BDD0094F9
:10453000009C6088FFF7C7F8001D85B2E04800883E
:10454000A84200D10DE09DF80400DE490870DE4865
:104550000078401CDC49087009F10109D145FFF6DB
:10456000F4AE00BFD6480088042823DDD448008874
:10457000A8421FD1D24801882046FFF78AF802904E
:10458000CF480088401E215C029881420FD12A4604
:104590002146304601F0E2FB3D800020C74908700B
:1045A000C7490880C8490870C6490870BDE66FF061
:1045B0000100BAE60120B8E610B50024C34890F81F
:1045C0003C0000B910BDC2A001F080FEBF48B0F8A9
:1045D00056103D30FEF714FE0446BC48B0F85600B5
:1045E000A04202D0C2A001F071FEFEF7A0FDB749C3
:1045F000886500BFE6E770B50446B44D3D3534B973
:10460000AFF6805001F062FE4FF0FF3070BD2879A8
:10461000401C2179884204D12121AC483B3001F073
:10462000B6FB0020F2E73EB50446002524B9B7A04A
:1046300001F04CFE681E3EBD20680090606801904D
:104640009DF80400401CC0B28DF804000520FFF75F
:104650003AF8ADF8020009216846FFF71AF88DF81C
:10466000080009216846FEF7CBFD0546002D04DA57
:104670002946AFF23C2001F029FE2846DBE710B5C1
:10468000924890F83C00012826D1904890F83B00D1
:1046900002281CDAFEF74BFD8C49896D401AB0F5F3
:1046A000FA6F19D9FEF743FD0446884890F83B306D
:1046B000826D2146A0A001F009FEFFF77DFF83482F
:1046C00090F83B00401C814981F83B0004E0212127
:1046D0007E483B3001F05BFB10BD30B59DB0044619
:1046E00000252CB99EA001F0F1FD681E1DB030BD63
:1046F0006846FFF76CF802208DF8040060798DF8A9
:104700000500A3A103C9CDE90201A4A103C9CDE914
:104710000401A5A103C9CDE90801A6A103C9CDE9FA
:1047200006012022A6A10AA801F018FB2022ADA1B3
:104730000DF1520001F012FB0020CDF84A00CDF837
:104740004E009DF851008DF851009DF8510040F049
:1047500002018DF851100020FEF7B5FFADF84800BA
:104760006F20FEF7B0FFADF8020073216846FEF738
:1047700090FF8DF8720073216846FEF741FD0546F3
:10478000002D04DA2946AFF2503001F09FFD284693
:10479000ACE7FEB504460E46002524B99AA001F008
:1047A00095FD681EFEBD6846FFF711F812208DF8D2
:1047B000040060798DF805000620FEF784FFADF84F
:1047C00002008DF808600A216846FEF762FF8DF846
:1047D00009000A216846FEF713FD0546002D04DA9C
:1047E0002946AFF2AC3001F071FD2846DAE770B52A
:1047F00004460026254624B98EA001F067FD701EF0
:1048000070BD3248F130A9680160E9684160298AC9
:104810000181A97C81722D49B1F8F100FEF753FFA7
:104820002A49A1F8F100D1F8F800FEF757FF27490F
:10483000C1F8F8000E21254890F88C208D30815465
:104840008D3890F88C00401C204981F88C000420A1
:1048500008700020D4E710B5FEF769FC044600BFDD
:10486000FEF765FC001BB0F5167FF9D9FEF762FC78
:1048700010BD10B504462CB974A001F027FD4FF00F
:10488000FF3010BD2089FEF71EFF20817B48007895
:10489000C0F38000217AC1F3800188420BD0207AD6
:1048A000C0F38000002807D0207A00F0010008B192
:1048B0000021E5E0F3E007E107E100004800002007
:1048C0004A0000204C0000204D000020C5000020C0
:1048D0005761726E696E673A2074696D656F7574A1
:1048E0002C20726573656E642064617461200A0017
:1048F0004552524F523A20726573656E642064616E
:104900007461206572726F720A0000004552524F46
:10491000523A2067697A50726F746F636F6C436F9D
:104920006D6D6F6E41636B206461746120697320EB
:10493000656D707479200A005761726E696E673A0E
:1049400067697A50726F746F636F6C526573656ECE
:1049500064446174612025642025642025640A0074
:1049600067697A50726F746F636F6C4765744465E2
:1049700076696365496E666F204572726F72202C8E
:1049800020496C6C6567616C20506172616D0A0032
:1049900030303030303030340000000030303030D3
:1049A00030303032000000003033303130313031BF
:1049B0000000000030333031303130300000000072
:1049C0003236636162626530356133373430656336
:1049D00038363663646331626436356463336365E5
:1049E0000000000030363964636437396637333489
:1049F0003439363039393738333663363164383103
:104A0000636238630000000067697A50726F746FE8
:104A1000636F6C4572726F72436D64204572726F82
:104A200072202C20496C6C6567616C20506172614A
:104A30006D0A00004552524F523A204E54502069A0
:104A40007320656D707479200A00000067697A50E0
:104A5000726F746F636F6C4D6F64756C65537461C6
:104A6000747573204572726F72202C20496C6C65CE
:104A700067616C20506172616D0A00004E00002079
:104A8000F94890F8742075308154753890F87400A6
:104A9000401CF54981F87400F4A001F017FC207A5D
:104AA000C0F34000002838D00121EF4890F874206E
:104AB00075308154753890F87400401CEA4981F8CB
:104AC0007400F2A001F002FC27E0207A00F001005F
:104AD00078B10021E44890F874207530815475381D
:104AE00090F87400401CE04981F87400DFA001F0E8
:104AF000EDFB207AC0F3400078B10221DA4890F84B
:104B0000742075308154753890F87400401CD64973
:104B100081F87400E4A001F0D9FBEA480078C0F302
:104B2000C000217AC1F3C00188422CD0207AC1088C
:104B3000E448008861F3C300E2490880207AC0F3AA
:104B4000C00080B10321C84890F8742075308154AA
:104B5000753890F87400401CC34981F87400DAA0DD
:104B600001F0B4FB0FE00421BF4890F874207530C9
:104B70008154753890F87400401CBB4981F874006A
:104B8000D9A001F0A3FBCF480078C0F30010217A30
:104B9000C1F3001188422CD0207A0109C94800884D
:104BA00061F30410C7490880207AC0F3001080B177
:104BB0000521AD4890F8742075308154753890F80F
:104BC0007400401CA84981F87400CFA001F07EFB5E
:104BD0000FE00621A44890F8742075308154753890
:104BE00090F87400401CA04981F87400CEA001F038
:104BF0006DFBB4480078C0F34010217AC1F3401136
:104C000088422CD0207A4109AE48008861F34510D3
:104C1000AC490880207AC0F3401080B10721924847
:104C200090F8742075308154753890F87400401CE9
:104C30008D4981F87400C5A001F048FB0FE0082100
:104C4000894890F8742075308154753890F8740054
:104C5000401C854981F87400C3A001F037FB9948D6
:104C60000088C0F3C0202189C1F3C02188422CD024
:104C70002089C10A9348008861F3CB2091490880BC
:104C80002089C0F3C02080B10B21774890F87420B0
:104C900075308154753890F87400401C724981F861
:104CA0007400B9A001F012FB0FE00C216E4890F8DF
:104CB000742075308154753890F87400401C6A492E
:104CC00081F87400B7A001F001FB7E480088C0F3B2
:104CD00000302189C1F3003188422CD02089010B9A
:104CE0007848008861F30C30764908802089C0F349
:104CF000003080B109215C4890F8742075308154EF
:104D0000753890F87400401C574981F87400ADA0C4
:104D100001F0DCFA0FE00A21534890F87420753056
:104D20008154753890F87400401C4F4981F8740024
:104D3000ABA001F0CBFA0D214B4890F874207530F0
:104D40008154753890F87400401C474981F874000C
:104D50002089C0F3022081F8F000084690F8F01096
:104D6000A6A001F0B3FA02203F490870002088E5B0
:104D700010B53220A5490860A548C8600846FEF76E
:104D800063FBFC21384801F002F810BD30B587B054
:104D900005460024052D62D2DFE805F00331646387
:104DA000620001A8FEF713FD0B208DF808002E48C5
:104DB00090F83710D0F83700401C2B4AC2F8370063
:104DC000C8B28DF809000520FEF77DFCADF806009D
:104DD000092101A8FEF75DFC8DF80C00092101A84E
:104DE000FEF70EFA0446002C04DA2146AFF6B8109E
:104DF00001F06CFA092101A8FEF7FAFC9AE104A877
:104E0000FEF7E5FC09208DF81400174890F83710DC
:104E1000D0F83700401C144AC2F83700C8B28DF8E9
:104E200015008DF818500620FEF74DFCADF8120065
:104E30000A2104A8FEF72DFC8DF819000A2104A808
:104E4000FEF7DEF90446002C04DA2146AFF61820FE
:104E500001F03CFA0A2104A8FEF7CAFC6AE165E108
:104E600036E107E1D6E00000C50000204F6E426F3A
:104E7000617264696E673A20536F66744150206FA7
:104E80007220576562206D6F64650A004F6E426F35
:104E9000617264696E673A204169724C696E6B2079
:104EA0006D6F64650A0000004F6E426F6172646945
:104EB0006E673A2053746174696F6E206D6F64651C
:104EC0000A0000004E000020576946692073746193
:104ED0007475733A20696E2062696E64696E67202A
:104EE0006D6F64650A00000057694669207374613C
:104EF0007475733A206F75742062696E64696E67A9
:104F0000206D6F64650A00005769466920737461FB
:104F10007475733A20636F6E6E6563746564207296
:104F20006F757465720A0000576946692073746171
:104F30007475733A20646973636F6E6E656374652C
:104F40006420726F757465720A00000057694669C3
:104F5000207374617475733A20636F6E6E65637449
:104F60006564206D326D0A0057694669207374616B
:104F70007475733A20646973636F6E6E65637465EC
:104F800064206D326D0A00005769466920737461B0
:104F90007475733A2061707020636F6E6E65637410
:104FA0000A00000057694669207374617475733A8A
:104FB000206E6F2061707020636F6E6E6563740A7F
:104FC0000000000057694669207374617475733A74
:104FD00020696E2074657374206D6F64650A00002B
:104FE00057694669207374617475733A206F7574DC
:104FF0002074657374206D6F64650A0052535349C1
:10500000206973202564200A00000000C1010020EF
:10501000D101002004A8FEF7DAFB09208DF8140066
:10502000F84890F83710D0F83700401CF54AC2F81D
:105030003700C8B28DF815008DF818500620FEF71D
:1050400042FBADF812000A2104A8FEF722FB8DF8FE
:1050500019000A2104A8FEF7D3F80446002C04DA4C
:105060002146AFF62C4001F031F90A2104A8FEF7E1
:10507000BFFB5FE001A8FEF7AAFB13208DF8080034
:10508000E04890F83710D0F83700401CDD4AC2F8ED
:105090003700C8B28DF809000520FEF714FBADF803
:1050A0000600092101A8FEF7F4FA8DF80C00092189
:1050B00001A8FEF7A5F80446002C04DA2146AFF655
:1050C000884001F003F9092101A8FEF791FB31E0C6
:1050D00001A8FEF77CFB15208DF80800C94890F860
:1050E0003710D0F83700401CC64AC2F83700C8B2A3
:1050F0008DF809000520FEF7E6FAADF80600092153
:1051000001A8FEF7C6FA8DF80C00092101A8FEF7E8
:1051100077F80446002C04DA2146AFF6E44001F0AB
:10512000D5F8092101A8FEF763FB03E0B6A001F062
:10513000CDF800BF00BF204607B030BD3EB500240B
:105140006846FEF744FB17208DF80400AD4890F840
:105150003710D0F83700401CAA4AC2F83700C8B24E
:105160008DF805000520FEF7AEFAADF80200092122
:105170006846FEF78EFA8DF8080009216846FEF7AA
:105180003FF80446002C03DA2146A5A001F09EF862
:1051900009216846FEF72CFB3EBDF0B58FB00446F2
:1051A0000025002700200190009000262CB9A5A022
:1051B00001F08CF8681E0FB0F0BDFFF760FA01AA8D
:1051C0009049491CA948FFF798F80546002D6DD174
:1051D000A7A001F07BF88B4E761C30790D2833D0D8
:1051E0000EDC07282CD006DC012816D0032818D0A6
:1051F000062852D12FE00A282ED00C284DD12CE0C1
:10520000142839D004DC0F282CD0112845D132E0E5
:10521000162823D0182840D135E03046FFF75DFA34
:1052200043E06B4602AABDF804107648401CFEF726
:1052300010FF20B902A93046009AFEF777FF34E04C
:105240003046FFF7F0F930E03046FFF7ECF9304632
:10525000FFF70FFB29E000BF00BF00BF3046FFF79C
:10526000CAF922E03046FFF7DEF986A001F02EF8F9
:10527000FFF7F1FA19E018E03046FFF7BCF986A015
:1052800001F024F811E03046FFF7B5F93046FFF79A
:10529000AEFA89A001F01AF807E002213046FFF7C4
:1052A00078FA8BA001F012F800BF0EE015F1020FA2
:1052B0000BD1544E761C01213046FFF76AFA8AA0C2
:1052C00001F004F86FF0010075E74E4800780128FE
:1052D00006D0022813D0032820D0042838D128E093
:1052E0000020484908701F22A431A1F14800FDF7B1
:1052F00023FE182143485C3000F049FD28E00020DF
:10530000404908700122F031A1F17C00FDF714FE44
:1053100018213C48743000F03AFD19E0002039496A
:1053200008700846D0F833201A315C30FDF704FECF
:105330000EE00020334908700B22F131A1F1650025
:10534000FDF7FAFD18212F488C3000F020FD00BF3A
:1053500000BF2046FEF795FF00202CE72DE9F04125
:1053600088B006460F464FF000083EB965A000F031
:10537000ADFF4FF0FF3008B0BDE8F08101ACB81DC3
:1053800085B2FF2004F8010B04F8010B281204F881
:10539000010B04F8015B052004F8010B194890F893
:1053A0003710D0F83700401C164AC2F8370004F80E
:1053B000011B002004F8010B04F8010B062004F87F
:1053C000010B3A4631460DF10D0000F0C7FC291DD6
:1053D00001A8FEF75EF90146E81C01AA1154291D37
:1053E00001A8FDF70DFF8046B8F1000F04DA414631
:1053F000AFF6BC7000F06AFF291D01A8FEF7F8F9AE
:105400000020B8E7C50000204552524F523A2043D1
:1054100066674D6F6465206572726F72210A0000C5
:105420004552524F525B4E54505D3A207561727432
:10543000207772697465206572726F72202564200E
:105440000A00000047697A7769747348616E646C7A
:1054500065204572726F72202C20496C6C65676103
:105460006C20506172616D0A00000000C1010020D3
:10547000476574204F6E65205061636B6574210A27
:10548000000000007265706F72743A4D43552072CF
:1054900065626F6F74210A0041636B2050524F4464
:1054A000554354494F4E5F4D4F44452073756363D8
:1054B000657373200A00000041636B204745545F09
:1054C0005554542073756363657373200A0000009C
:1054D0004552524F523A20636D6420636F646520D9
:1054E0006572726F72210A004552524F523A206320
:1054F0006865636B2073756D206572726F72210A27
:10550000000000005B4572726F725D2067697A77F8
:10551000697473506173737468726F7567684461FE
:105520007461204572726F72200A000008B5012173
:105530000820FBF799FC4FF48070ADF800001020B4
:105540008DF8030003208DF8020069460B48FBF735
:10555000CFF94FF480710948FBF779FA08BD10B50F
:105560000446012C04D101020448FBF76EFA04E062
:105570004FF480710148FBF76AFA10BD000C01403E
:1055800008B501210C20FBF76FFC0120ADF80000ED
:1055900010208DF8030003208DF80200694627488B
:1055A000FBF7A6F901212548FBF74FFA4FF42040FD
:1055B000ADF8000010208DF8030003208DF80200E4
:1055C00069461F48FBF794F94FF420411C48FBF74C
:1055D0003CFA08BD70B505460C46012D04D0022DDD
:1055E0000ED0032D26D118E0012C04D1012113483F
:1055F000FBF72DFA03E001211048FBF726FA1AE029
:10560000012C04D161030E48FBF721FA04E04FF4AA
:1056100000510B48FBF719FA0DE0012C04D1E1030E
:105620000748FBF714FA04E04FF400410448FBF785
:105630000CFA00E000BF00BF70BD00000008014090
:10564000000C01402DE9F0470A21012000F0E3F8A9
:105650008146484600F0E9FC824600F018FD074606
:105660004FF066323A4B00F065FC054600F022FD33
:105670000446204600F0F7FC1FFA80F9484600F087
:10568000D4FC0546214600F0E2FB0446484600F003
:10569000CCFC0646214600F085FB05464FF08041D4
:1056A00000F02EFD1BD2484600F0BFFC824621468A
:1056B00000F078FB8046274900F0CCFB07462649DE
:1056C00000F0C2FB0646254900F0F6FB054600F057
:1056D000B1FC2349086008460068BDE8F0874846E9
:1056E00000F0A3FC0646214600F05CFB05464FF0A7
:1056F000804100F0FBFC1AD2484600F096FC82463E
:10570000214600F04FFB8046124900F0A3FB0746FC
:10571000114900F09CFB0646104900F0CDFB054600
:1057200000F088FC0E49086008460068D5E7484646
:1057300000F07BFC0646214600F034FB05464FF0A6
:10574000804100F0D3FC01D10020C6E700BFC4E7D0
:1057500066664A3F00007A4400401C4500008442CF
:105760005000002000B587B001214FF40170FBF715
:105770007BFB4FF40040FBF7DBFA0220ADF804009E
:1057800000208DF8070001A92E48FBF7B1F82E483C
:10579000FAF726FE002002908DF80C008DF80D001F
:1057A0004FF4602004900020059001208DF818002F
:1057B00002A92548FAF73BFE01212348FAF763FEC8
:1057C0002148FAF782FE00BF1F48FAF783FE00283F
:1057D000FAD11D48FAF788FE00BF1B48FAF789FE88
:1057E0000028FAD107B000BD10B5044607230122F6
:1057F00021461548FAF7B3FE01211348FAF783FE54
:1058000000BF02211048FAF7EFFF0028F9D00E4838
:10581000FAF70CFF10BD2DE9F04107460C460025B4
:10582000002608E03846FFF7DFFF0544052000F0BA
:105830004AF8701CC6B2A642F4DBB5FBF4F080B2A5
:10584000BDE8F081000801400024014010B56FF070
:105850000400FAF7A6FD2E4800682E49B0FBF1F0CF
:105860002D4908700846007800EB4001C1EBC010DC
:105870004FF6FF7101EAC0002849088010BD0146BB
:10588000254A12784A434FF0E0235A6100229A6178
:105890001A46126942F001021A6100BF4FF0E0227D
:1058A000106900F001021AB100F48032002AF5D02C
:1058B0004FF0E022126922F001024FF0E0231A615A
:1058C00000229A6170470146144A12884A434FF0F9
:1058D000E0235A6100229A611A46126942F00102DD
:1058E0001A6100BF4FF0E022106900F001021AB106
:1058F00000F48032002AF5D04FF0E022126922F045
:1059000001024FF0E0231A6100229A617047000003
:105910000000002000127A005400002056000020F1
:1059200010B500F0EBF810BD70B50446002600F08D
:10593000FCF82546E11704EB11610912A02202EBE5
:105940004101C8B200F0A3F900F030F9E11704EB0F
:1059500011610912A4EB0121C8B200F098F900F01E
:1059600025F900F0E2F8A12000F091F900F01EF90D
:10597000002000F0BAF9064600F0F7F8304670BD96
:1059800070B504460E4600F0D0F82546E11704EB4A
:1059900011610912A02202EB4101C8B200F077F9AF
:1059A00000F004F9E11704EB11610912A4EB0121E5
:1059B000C8B200F06CF900F0F9F8304600F067F971
:1059C00000F0F4F800F0D1F80A20FFF77CFF70BD7A
:1059D0002DE9F04105460E461746002409E0E20095
:1059E00026FA02F2D1B22A1990B2FFF7C9FF601C61
:1059F000C4B2BC42F3DBBDE8F0812DE9F0410746BB
:105A00000C460026002509E036023919491B491EBB
:105A100088B2FFF789FF0644681CC5B2A542F3DBD4
:105A20003046BDE8F08110B5FF20FFF77DFF04464A
:105A3000552C01D1002010BD5521FF20FFF7A0FFFC
:105A4000FF20FFF771FF0446552C01D10020F2E73B
:105A50000120F0E770B506460C46154608E03046D2
:105A6000721C96B2FFF760FF04F8010B681E85B246
:105A7000002DF4D170BD70B505460C46164606E003
:105A800021782846FFF77CFF681C85B2641C300033
:105A9000A6F101018EB2F3D170BD10B50020FFF761
:105AA00043FF104908700120FFF73EFF0E490870C0
:105AB00004210220FFF7A1FF0C4908600421062001
:105AC000FFF79BFF0A49086004210A20FFF795FFB2
:105AD0000849086004210E20FFF78FFF064908607F
